{
  "transactions": [
    {
      "hash": "0x118102e1f08c6af4ec4e9a90660316ecb1b6fcd49ddea38ed042a7137816cb1d",
      "transactionType": "CALL",
      "contractName": null,
      "contractAddress": "0xa278df5a2e5b136916c2c62851a717c64d9e6ce3",
      "function": "grantRole(bytes32,address)",
      "arguments": [
        "0x9f2df0fed2c77648de5860a4cc508cd0818c85b8b8a1ab4ceeef8d981c8956a6",
        "0xAc39d3aBEd258D4A329107776b31bdeF9C906E07"
      ],
      "transaction": {
        "from": "0x19b970aa6038cb582ee191a49b3978ceed255815",
        "to": "0xa278df5a2e5b136916c2c62851a717c64d9e6ce3",
        "gas": "0x135eb",
        "value": "0x0",
        "input": "0x2f2ff15d9f2df0fed2c77648de5860a4cc508cd0818c85b8b8a1ab4ceeef8d981c8956a6000000000000000000000000ac39d3abed258d4a329107776b31bdef9c906e07",
        "nonce": "0x2",
        "chainId": "0x2105"
      },
      "additionalContracts": [],
      "isFixedGasLimit": false
    }
  ],
  "receipts": [
    {
      "status": "0x1",
      "cumulativeGasUsed": "0x2f01bb9",
      "logs": [
        {
          "address": "0xa278df5a2e5b136916c2c62851a717c64d9e6ce3",
          "topics": [
            "0x2f8788117e7eff1d82e926ec794901d17c78024a50270940304540a733656f0d",
            "0x9f2df0fed2c77648de5860a4cc508cd0818c85b8b8a1ab4ceeef8d981c8956a6",
            "0x000000000000000000000000ac39d3abed258d4a329107776b31bdef9c906e07",
            "0x00000000000000000000000019b970aa6038cb582ee191a49b3978ceed255815"
          ],
          "data": "0x",
          "blockHash": "0x139469651b4cea37e360dde401772434ea86ca2a998dba5cc5b2908290e0f163",
          "blockNumber": "0x1d65236",
          "blockTimestamp": "0x6837014f",
          "transactionHash": "0x118102e1f08c6af4ec4e9a90660316ecb1b6fcd49ddea38ed042a7137816cb1d",
          "transactionIndex": "0xbf",
          "logIndex": "0x1c1",
          "removed": false
        }
      ],
      "logsBloom": "0x0000000400000000000000008000000000000000000000000000000000000000000000000000000000000000000000400000000000000000000000000000000000000000000000000000000000000000000000000000000000000000000000000000000000000000000000000000000000000000000000000000000000100000000000000002000000000000000002000000000000000000000000000000000000000000000000000000000000000800000000040400000000100000000000c000000000000000000000000000000000001000004000000100000000000000000000000000000000000000000000000000000000000000000000000000000000",
      "type": "0x2",
      "transactionHash": "0x118102e1f08c6af4ec4e9a90660316ecb1b6fcd49ddea38ed042a7137816cb1d",
      "transactionIndex": "0xbf",
      "blockHash": "0x139469651b4cea37e360dde401772434ea86ca2a998dba5cc5b2908290e0f163",
      "blockNumber": "0x1d65236",
      "gasUsed": "0xd3e9",
      "effectiveGasPrice": "0x171801",
      "from": "0x19b970aa6038cb582ee191a49b3978ceed255815",
      "to": "0xa278df5a2e5b136916c2c62851a717c64d9e6ce3",
      "contractAddress": null,
      "l1BaseFeeScalar": "0x8dd",
      "l1BlobBaseFee": "0x1",
      "l1BlobBaseFeeScalar": "0x101c12",
      "l1Fee": "0x50dfdc0c3",
      "l1GasPrice": "0x151ee4668",
      "l1GasUsed": "0x697"
    }
  ],
  "libraries": [],
  "pending": [],
  "returns": {},
  "timestamp": 1748435280,
  "chain": 8453,
  "commit": "398b607"
}